{
  "contractName": "GaslessTransaction",
  "abi": [
    {
      "inputs": [],
      "stateMutability": "nonpayable",
      "type": "constructor"
    },
    {
      "anonymous": false,
      "inputs": [
        {
          "indexed": true,
          "internalType": "address",
          "name": "sender",
          "type": "address"
        },
        {
          "indexed": false,
          "internalType": "uint256",
          "name": "amount",
          "type": "uint256"
        }
      ],
      "name": "Deposited",
      "type": "event"
    },
    {
      "anonymous": false,
      "inputs": [
        {
          "indexed": true,
          "internalType": "address",
          "name": "from",
          "type": "address"
        },
        {
          "indexed": true,
          "internalType": "address",
          "name": "to",
          "type": "address"
        },
        {
          "indexed": false,
          "internalType": "uint256",
          "name": "amount",
          "type": "uint256"
        }
      ],
      "name": "Transferred",
      "type": "event"
    },
    {
      "inputs": [
        {
          "internalType": "address",
          "name": "",
          "type": "address"
        }
      ],
      "name": "balances",
      "outputs": [
        {
          "internalType": "uint256",
          "name": "",
          "type": "uint256"
        }
      ],
      "stateMutability": "view",
      "type": "function"
    },
    {
      "inputs": [],
      "name": "relayer",
      "outputs": [
        {
          "internalType": "address",
          "name": "",
          "type": "address"
        }
      ],
      "stateMutability": "view",
      "type": "function"
    },
    {
      "inputs": [],
      "name": "deposit",
      "outputs": [],
      "stateMutability": "payable",
      "type": "function"
    },
    {
      "inputs": [
        {
          "internalType": "address",
          "name": "sender",
          "type": "address"
        },
        {
          "internalType": "address",
          "name": "recipient",
          "type": "address"
        },
        {
          "internalType": "uint256",
          "name": "amount",
          "type": "uint256"
        },
        {
          "internalType": "bytes",
          "name": "signature",
          "type": "bytes"
        }
      ],
      "name": "executeMetaTransaction",
      "outputs": [],
      "stateMutability": "nonpayable",
      "type": "function"
    },
    {
      "inputs": [
        {
          "internalType": "bytes32",
          "name": "hash",
          "type": "bytes32"
        },
        {
          "internalType": "bytes",
          "name": "signature",
          "type": "bytes"
        }
      ],
      "name": "recoverSigner",
      "outputs": [
        {
          "internalType": "address",
          "name": "",
          "type": "address"
        }
      ],
      "stateMutability": "pure",
      "type": "function"
    }
  ],
  "bytecode": "0x608060405234801561000f575f80fd5b503360015f6101000a81548173ffffffffffffffffffffffffffffffffffffffff021916908373ffffffffffffffffffffffffffffffffffffffff160217905550610e338061005d5f395ff3fe608060405260043610610049575f3560e01c806327e235e31461004d5780638406c0791461008957806397aba7f9146100b3578063ba6f0fb5146100ef578063d0e30db014610117575b5f80fd5b348015610058575f80fd5b50610073600480360381019061006e9190610680565b610121565b60405161008091906106c3565b60405180910390f35b348015610094575f80fd5b5061009d610135565b6040516100aa91906106eb565b60405180910390f35b3480156100be575f80fd5b506100d960048036038101906100d49190610873565b61015a565b6040516100e691906106eb565b60405180910390f35b3480156100fa575f80fd5b50610115600480360381019061011091906108f7565b610280565b005b61011f610573565b005b5f602052805f5260405f205f915090505481565b60015f9054906101000a900473ffffffffffffffffffffffffffffffffffffffff1681565b5f604182511461019f576040517f08c379a0000000000000000000000000000000000000000000000000000000008152600401610196906109d1565b60405180910390fd5b5f805f602085015192506040850151915060608501515f1a9050601b8160ff1610156101d557601b816101d29190610a28565b90505b601b8160ff1614806101ea5750601c8160ff16145b610229576040517f08c379a000000000000000000000000000000000000000000000000000000000815260040161022090610aa6565b60405180910390fd5b6001868285856040515f815260200160405260405161024b9493929190610ae2565b6020604051602081039080840390855afa15801561026b573d5f803e3d5ffd5b50505060206040510351935050505092915050565b60015f9054906101000a900473ffffffffffffffffffffffffffffffffffffffff1673ffffffffffffffffffffffffffffffffffffffff163373ffffffffffffffffffffffffffffffffffffffff161461030f576040517f08c379a000000000000000000000000000000000000000000000000000000000815260040161030690610b6f565b60405180910390fd5b815f808673ffffffffffffffffffffffffffffffffffffffff1673ffffffffffffffffffffffffffffffffffffffff1681526020019081526020015f2054101561038e576040517f08c379a000000000000000000000000000000000000000000000000000000000815260040161038590610bd7565b60405180910390fd5b5f8484846040516020016103a493929190610c5a565b6040516020818303038152906040528051906020012090505f816040516020016103ce9190610d0a565b6040516020818303038152906040528051906020012090505f6103f1828561015a565b90508673ffffffffffffffffffffffffffffffffffffffff168173ffffffffffffffffffffffffffffffffffffffff1614610461576040517f08c379a000000000000000000000000000000000000000000000000000000000815260040161045890610d79565b60405180910390fd5b845f808973ffffffffffffffffffffffffffffffffffffffff1673ffffffffffffffffffffffffffffffffffffffff1681526020019081526020015f205f8282546104ac9190610d97565b92505081905550845f808873ffffffffffffffffffffffffffffffffffffffff1673ffffffffffffffffffffffffffffffffffffffff1681526020019081526020015f205f8282546104fe9190610dca565b925050819055508573ffffffffffffffffffffffffffffffffffffffff168773ffffffffffffffffffffffffffffffffffffffff167fd1ba4ac2e2a11b5101f6cb4d978f514a155b421e8ec396d2d9abaf0bb02917ee8760405161056291906106c3565b60405180910390a350505050505050565b345f803373ffffffffffffffffffffffffffffffffffffffff1673ffffffffffffffffffffffffffffffffffffffff1681526020019081526020015f205f8282546105be9190610dca565b925050819055503373ffffffffffffffffffffffffffffffffffffffff167f2da466a7b24304f47e87fa2e1e5a81b9831ce54fec19055ce277ca2f39ba42c43460405161060b91906106c3565b60405180910390a2565b5f604051905090565b5f80fd5b5f80fd5b5f73ffffffffffffffffffffffffffffffffffffffff82169050919050565b5f61064f82610626565b9050919050565b61065f81610645565b8114610669575f80fd5b50565b5f8135905061067a81610656565b92915050565b5f602082840312156106955761069461061e565b5b5f6106a28482850161066c565b91505092915050565b5f819050919050565b6106bd816106ab565b82525050565b5f6020820190506106d65f8301846106b4565b92915050565b6106e581610645565b82525050565b5f6020820190506106fe5f8301846106dc565b92915050565b5f819050919050565b61071681610704565b8114610720575f80fd5b50565b5f813590506107318161070d565b92915050565b5f80fd5b5f80fd5b5f601f19601f8301169050919050565b7f4e487b71000000000000000000000000000000000000000000000000000000005f52604160045260245ffd5b6107858261073f565b810181811067ffffffffffffffff821117156107a4576107a361074f565b5b80604052505050565b5f6107b6610615565b90506107c2828261077c565b919050565b5f67ffffffffffffffff8211156107e1576107e061074f565b5b6107ea8261073f565b9050602081019050919050565b828183375f83830152505050565b5f610817610812846107c7565b6107ad565b9050828152602081018484840111156108335761083261073b565b5b61083e8482856107f7565b509392505050565b5f82601f83011261085a57610859610737565b5b813561086a848260208601610805565b91505092915050565b5f80604083850312156108895761088861061e565b5b5f61089685828601610723565b925050602083013567ffffffffffffffff8111156108b7576108b6610622565b5b6108c385828601610846565b9150509250929050565b6108d6816106ab565b81146108e0575f80fd5b50565b5f813590506108f1816108cd565b92915050565b5f805f806080858703121561090f5761090e61061e565b5b5f61091c8782880161066c565b945050602061092d8782880161066c565b935050604061093e878288016108e3565b925050606085013567ffffffffffffffff81111561095f5761095e610622565b5b61096b87828801610846565b91505092959194509250565b5f82825260208201905092915050565b7f496e76616c6964207369676e6174757265206c656e67746800000000000000005f82015250565b5f6109bb601883610977565b91506109c682610987565b602082019050919050565b5f6020820190508181035f8301526109e8816109af565b9050919050565b5f60ff82169050919050565b7f4e487b71000000000000000000000000000000000000000000000000000000005f52601160045260245ffd5b5f610a32826109ef565b9150610a3d836109ef565b9250828201905060ff811115610a5657610a556109fb565b5b92915050565b7f496e76616c6964207369676e61747572652076657273696f6e000000000000005f82015250565b5f610a90601983610977565b9150610a9b82610a5c565b602082019050919050565b5f6020820190508181035f830152610abd81610a84565b9050919050565b610acd81610704565b82525050565b610adc816109ef565b82525050565b5f608082019050610af55f830187610ac4565b610b026020830186610ad3565b610b0f6040830185610ac4565b610b1c6060830184610ac4565b95945050505050565b7f4e6f7420617574686f72697a65642072656c61796572000000000000000000005f82015250565b5f610b59601683610977565b9150610b6482610b25565b602082019050919050565b5f6020820190508181035f830152610b8681610b4d565b9050919050565b7f496e73756666696369656e742062616c616e63650000000000000000000000005f82015250565b5f610bc1601483610977565b9150610bcc82610b8d565b602082019050919050565b5f6020820190508181035f830152610bee81610bb5565b9050919050565b5f8160601b9050919050565b5f610c0b82610bf5565b9050919050565b5f610c1c82610c01565b9050919050565b610c34610c2f82610645565b610c12565b82525050565b5f819050919050565b610c54610c4f826106ab565b610c3a565b82525050565b5f610c658286610c23565b601482019150610c758285610c23565b601482019150610c858284610c43565b602082019150819050949350505050565b5f81905092915050565b7f19457468657265756d205369676e6564204d6573736167653a0a3332000000005f82015250565b5f610cd4601c83610c96565b9150610cdf82610ca0565b601c82019050919050565b5f819050919050565b610d04610cff82610704565b610cea565b82525050565b5f610d1482610cc8565b9150610d208284610cf3565b60208201915081905092915050565b7f496e76616c6964207369676e61747572650000000000000000000000000000005f82015250565b5f610d63601183610977565b9150610d6e82610d2f565b602082019050919050565b5f6020820190508181035f830152610d9081610d57565b9050919050565b5f610da1826106ab565b9150610dac836106ab565b9250828203905081811115610dc457610dc36109fb565b5b92915050565b5f610dd4826106ab565b9150610ddf836106ab565b9250828201905080821115610df757610df66109fb565b5b9291505056fea26469706673582212200cfcfe859ee1c63bc9e55c2f7a0c404a51ca2ec7b98f049ff256c3dbf5fabdd664736f6c63430008150033",
  "immutableReferences": {},
  "source": "// SPDX-License-Identifier: MIT\r\npragma solidity ^0.8.0;\r\n\r\ncontract GaslessTransaction {\r\n    mapping(address => uint256) public balances;\r\n    address public relayer;\r\n\r\n    event Deposited(address indexed sender, uint256 amount);\r\n    event Transferred(address indexed from, address indexed to, uint256 amount);\r\n\r\n    constructor() {\r\n        relayer = msg.sender; // The deployer is the default relayer\r\n    }\r\n\r\n    modifier onlyRelayer() {\r\n        require(msg.sender == relayer, \"Not authorized relayer\");\r\n        _;\r\n    }\r\n\r\n    function deposit() public payable {\r\n        balances[msg.sender] += msg.value;\r\n        emit Deposited(msg.sender, msg.value);\r\n    }\r\n\r\n    function executeMetaTransaction(\r\n        address sender,\r\n        address recipient,\r\n        uint256 amount,\r\n        bytes memory signature\r\n    ) public onlyRelayer {\r\n        require(balances[sender] >= amount, \"Insufficient balance\");\r\n\r\n        // Hash the transaction for signature verification\r\n        bytes32 messageHash = keccak256(abi.encodePacked(sender, recipient, amount));\r\n        bytes32 prefixedHash = keccak256(abi.encodePacked(\"\\x19Ethereum Signed Message:\\n32\", messageHash));\r\n        address recoveredAddress = recoverSigner(prefixedHash, signature);\r\n\r\n        // Verify that the sender authorized the transaction\r\n        require(recoveredAddress == sender, \"Invalid signature\");\r\n\r\n        // Perform the transfer\r\n        balances[sender] -= amount;\r\n        balances[recipient] += amount;\r\n\r\n        emit Transferred(sender, recipient, amount);\r\n    }\r\n\r\n    function recoverSigner(bytes32 hash, bytes memory signature) public pure returns (address) {\r\n        require(signature.length == 65, \"Invalid signature length\");\r\n\r\n        bytes32 r;\r\n        bytes32 s;\r\n        uint8 v;\r\n\r\n        assembly {\r\n            r := mload(add(signature, 32))\r\n            s := mload(add(signature, 64))\r\n            v := byte(0, mload(add(signature, 96)))\r\n        }\r\n\r\n        if (v < 27) v += 27;\r\n        require(v == 27 || v == 28, \"Invalid signature version\");\r\n\r\n        return ecrecover(hash, v, r, s);\r\n    }\r\n}\r\n",
  "sourcePath": "C:\\Data\\code playground\\innovcon\\test\\web3-dapp\\contracts\\GaslessTransaction.sol",
  "compiler": {
    "name": "solc",
    "version": "0.8.21+commit.d9974bed.Emscripten.clang"
  },
  "schemaVersion": "3.4.16",
  "updatedAt": "2025-02-28T00:27:14.761Z",
  "devdoc": {
    "kind": "dev",
    "methods": {},
    "version": 1
  },
  "userdoc": {
    "kind": "user",
    "methods": {},
    "version": 1
  }
}